{
  "_format": "hh-sol-artifact-1",
  "contractName": "NFTMarketplace",
  "sourceName": "contracts/NFTMarketplace.sol",
  "abi": [
    {
      "inputs": [],
      "stateMutability": "nonpayable",
      "type": "constructor"
    },
    {
      "inputs": [
        {
          "internalType": "address",
          "name": "sender",
          "type": "address"
        },
        {
          "internalType": "uint256",
          "name": "tokenId",
          "type": "uint256"
        },
        {
          "internalType": "address",
          "name": "owner",
          "type": "address"
        }
      ],
      "name": "ERC721IncorrectOwner",
      "type": "error"
    },
    {
      "inputs": [
        {
          "internalType": "address",
          "name": "operator",
          "type": "address"
        },
        {
          "internalType": "uint256",
          "name": "tokenId",
          "type": "uint256"
        }
      ],
      "name": "ERC721InsufficientApproval",
      "type": "error"
    },
    {
      "inputs": [
        {
          "internalType": "address",
          "name": "approver",
          "type": "address"
        }
      ],
      "name": "ERC721InvalidApprover",
      "type": "error"
    },
    {
      "inputs": [
        {
          "internalType": "address",
          "name": "operator",
          "type": "address"
        }
      ],
      "name": "ERC721InvalidOperator",
      "type": "error"
    },
    {
      "inputs": [
        {
          "internalType": "address",
          "name": "owner",
          "type": "address"
        }
      ],
      "name": "ERC721InvalidOwner",
      "type": "error"
    },
    {
      "inputs": [
        {
          "internalType": "address",
          "name": "receiver",
          "type": "address"
        }
      ],
      "name": "ERC721InvalidReceiver",
      "type": "error"
    },
    {
      "inputs": [
        {
          "internalType": "address",
          "name": "sender",
          "type": "address"
        }
      ],
      "name": "ERC721InvalidSender",
      "type": "error"
    },
    {
      "inputs": [
        {
          "internalType": "uint256",
          "name": "tokenId",
          "type": "uint256"
        }
      ],
      "name": "ERC721NonexistentToken",
      "type": "error"
    },
    {
      "anonymous": false,
      "inputs": [
        {
          "indexed": true,
          "internalType": "address",
          "name": "owner",
          "type": "address"
        },
        {
          "indexed": true,
          "internalType": "address",
          "name": "approved",
          "type": "address"
        },
        {
          "indexed": true,
          "internalType": "uint256",
          "name": "tokenId",
          "type": "uint256"
        }
      ],
      "name": "Approval",
      "type": "event"
    },
    {
      "anonymous": false,
      "inputs": [
        {
          "indexed": true,
          "internalType": "address",
          "name": "owner",
          "type": "address"
        },
        {
          "indexed": true,
          "internalType": "address",
          "name": "operator",
          "type": "address"
        },
        {
          "indexed": false,
          "internalType": "bool",
          "name": "approved",
          "type": "bool"
        }
      ],
      "name": "ApprovalForAll",
      "type": "event"
    },
    {
      "anonymous": false,
      "inputs": [
        {
          "indexed": false,
          "internalType": "uint256",
          "name": "_fromTokenId",
          "type": "uint256"
        },
        {
          "indexed": false,
          "internalType": "uint256",
          "name": "_toTokenId",
          "type": "uint256"
        }
      ],
      "name": "BatchMetadataUpdate",
      "type": "event"
    },
    {
      "anonymous": false,
      "inputs": [
        {
          "indexed": true,
          "internalType": "uint256",
          "name": "tokenId",
          "type": "uint256"
        },
        {
          "indexed": false,
          "internalType": "address",
          "name": "seller",
          "type": "address"
        },
        {
          "indexed": false,
          "internalType": "address",
          "name": "owner",
          "type": "address"
        },
        {
          "indexed": false,
          "internalType": "uint256",
          "name": "price",
          "type": "uint256"
        },
        {
          "indexed": false,
          "internalType": "bool",
          "name": "sold",
          "type": "bool"
        }
      ],
      "name": "MarketItemCreated",
      "type": "event"
    },
    {
      "anonymous": false,
      "inputs": [
        {
          "indexed": false,
          "internalType": "uint256",
          "name": "_tokenId",
          "type": "uint256"
        }
      ],
      "name": "MetadataUpdate",
      "type": "event"
    },
    {
      "anonymous": false,
      "inputs": [
        {
          "indexed": true,
          "internalType": "address",
          "name": "from",
          "type": "address"
        },
        {
          "indexed": true,
          "internalType": "address",
          "name": "to",
          "type": "address"
        },
        {
          "indexed": true,
          "internalType": "uint256",
          "name": "tokenId",
          "type": "uint256"
        }
      ],
      "name": "Transfer",
      "type": "event"
    },
    {
      "inputs": [
        {
          "internalType": "address",
          "name": "to",
          "type": "address"
        },
        {
          "internalType": "uint256",
          "name": "tokenId",
          "type": "uint256"
        }
      ],
      "name": "approve",
      "outputs": [],
      "stateMutability": "nonpayable",
      "type": "function"
    },
    {
      "inputs": [
        {
          "internalType": "address",
          "name": "owner",
          "type": "address"
        }
      ],
      "name": "balanceOf",
      "outputs": [
        {
          "internalType": "uint256",
          "name": "",
          "type": "uint256"
        }
      ],
      "stateMutability": "view",
      "type": "function"
    },
    {
      "inputs": [
        {
          "internalType": "uint256",
          "name": "tokenId",
          "type": "uint256"
        }
      ],
      "name": "createMarketSale",
      "outputs": [],
      "stateMutability": "payable",
      "type": "function"
    },
    {
      "inputs": [
        {
          "internalType": "string",
          "name": "tokenURI",
          "type": "string"
        },
        {
          "internalType": "uint256",
          "name": "price",
          "type": "uint256"
        }
      ],
      "name": "createToken",
      "outputs": [
        {
          "internalType": "uint256",
          "name": "",
          "type": "uint256"
        }
      ],
      "stateMutability": "payable",
      "type": "function"
    },
    {
      "inputs": [
        {
          "internalType": "address",
          "name": "_seller",
          "type": "address"
        }
      ],
      "name": "fetchItemsListed",
      "outputs": [
        {
          "components": [
            {
              "internalType": "uint256",
              "name": "tokenId",
              "type": "uint256"
            },
            {
              "internalType": "address payable",
              "name": "seller",
              "type": "address"
            },
            {
              "internalType": "address payable",
              "name": "owner",
              "type": "address"
            },
            {
              "internalType": "uint256",
              "name": "price",
              "type": "uint256"
            },
            {
              "internalType": "bool",
              "name": "sold",
              "type": "bool"
            }
          ],
          "internalType": "struct NFTMarketplace.MarketItem[]",
          "name": "",
          "type": "tuple[]"
        }
      ],
      "stateMutability": "view",
      "type": "function"
    },
    {
      "inputs": [],
      "name": "fetchMarketItems",
      "outputs": [
        {
          "components": [
            {
              "internalType": "uint256",
              "name": "tokenId",
              "type": "uint256"
            },
            {
              "internalType": "address payable",
              "name": "seller",
              "type": "address"
            },
            {
              "internalType": "address payable",
              "name": "owner",
              "type": "address"
            },
            {
              "internalType": "uint256",
              "name": "price",
              "type": "uint256"
            },
            {
              "internalType": "bool",
              "name": "sold",
              "type": "bool"
            }
          ],
          "internalType": "struct NFTMarketplace.MarketItem[]",
          "name": "",
          "type": "tuple[]"
        }
      ],
      "stateMutability": "view",
      "type": "function"
    },
    {
      "inputs": [
        {
          "internalType": "address",
          "name": "_owner",
          "type": "address"
        }
      ],
      "name": "fetchMyNFTs",
      "outputs": [
        {
          "components": [
            {
              "internalType": "uint256",
              "name": "tokenId",
              "type": "uint256"
            },
            {
              "internalType": "address payable",
              "name": "seller",
              "type": "address"
            },
            {
              "internalType": "address payable",
              "name": "owner",
              "type": "address"
            },
            {
              "internalType": "uint256",
              "name": "price",
              "type": "uint256"
            },
            {
              "internalType": "bool",
              "name": "sold",
              "type": "bool"
            }
          ],
          "internalType": "struct NFTMarketplace.MarketItem[]",
          "name": "",
          "type": "tuple[]"
        }
      ],
      "stateMutability": "view",
      "type": "function"
    },
    {
      "inputs": [
        {
          "internalType": "uint256",
          "name": "tokenId",
          "type": "uint256"
        }
      ],
      "name": "getApproved",
      "outputs": [
        {
          "internalType": "address",
          "name": "",
          "type": "address"
        }
      ],
      "stateMutability": "view",
      "type": "function"
    },
    {
      "inputs": [],
      "name": "getListingPrice",
      "outputs": [
        {
          "internalType": "uint256",
          "name": "",
          "type": "uint256"
        }
      ],
      "stateMutability": "view",
      "type": "function"
    },
    {
      "inputs": [
        {
          "internalType": "address",
          "name": "owner",
          "type": "address"
        },
        {
          "internalType": "address",
          "name": "operator",
          "type": "address"
        }
      ],
      "name": "isApprovedForAll",
      "outputs": [
        {
          "internalType": "bool",
          "name": "",
          "type": "bool"
        }
      ],
      "stateMutability": "view",
      "type": "function"
    },
    {
      "inputs": [],
      "name": "name",
      "outputs": [
        {
          "internalType": "string",
          "name": "",
          "type": "string"
        }
      ],
      "stateMutability": "view",
      "type": "function"
    },
    {
      "inputs": [
        {
          "internalType": "uint256",
          "name": "tokenId",
          "type": "uint256"
        }
      ],
      "name": "ownerOf",
      "outputs": [
        {
          "internalType": "address",
          "name": "",
          "type": "address"
        }
      ],
      "stateMutability": "view",
      "type": "function"
    },
    {
      "inputs": [
        {
          "internalType": "uint256",
          "name": "tokenId",
          "type": "uint256"
        },
        {
          "internalType": "uint256",
          "name": "price",
          "type": "uint256"
        }
      ],
      "name": "resellToken",
      "outputs": [],
      "stateMutability": "payable",
      "type": "function"
    },
    {
      "inputs": [
        {
          "internalType": "address",
          "name": "from",
          "type": "address"
        },
        {
          "internalType": "address",
          "name": "to",
          "type": "address"
        },
        {
          "internalType": "uint256",
          "name": "tokenId",
          "type": "uint256"
        }
      ],
      "name": "safeTransferFrom",
      "outputs": [],
      "stateMutability": "nonpayable",
      "type": "function"
    },
    {
      "inputs": [
        {
          "internalType": "address",
          "name": "from",
          "type": "address"
        },
        {
          "internalType": "address",
          "name": "to",
          "type": "address"
        },
        {
          "internalType": "uint256",
          "name": "tokenId",
          "type": "uint256"
        },
        {
          "internalType": "bytes",
          "name": "data",
          "type": "bytes"
        }
      ],
      "name": "safeTransferFrom",
      "outputs": [],
      "stateMutability": "nonpayable",
      "type": "function"
    },
    {
      "inputs": [
        {
          "internalType": "address",
          "name": "operator",
          "type": "address"
        },
        {
          "internalType": "bool",
          "name": "approved",
          "type": "bool"
        }
      ],
      "name": "setApprovalForAll",
      "outputs": [],
      "stateMutability": "nonpayable",
      "type": "function"
    },
    {
      "inputs": [
        {
          "internalType": "bytes4",
          "name": "interfaceId",
          "type": "bytes4"
        }
      ],
      "name": "supportsInterface",
      "outputs": [
        {
          "internalType": "bool",
          "name": "",
          "type": "bool"
        }
      ],
      "stateMutability": "view",
      "type": "function"
    },
    {
      "inputs": [],
      "name": "symbol",
      "outputs": [
        {
          "internalType": "string",
          "name": "",
          "type": "string"
        }
      ],
      "stateMutability": "view",
      "type": "function"
    },
    {
      "inputs": [
        {
          "internalType": "uint256",
          "name": "tokenId",
          "type": "uint256"
        }
      ],
      "name": "tokenURI",
      "outputs": [
        {
          "internalType": "string",
          "name": "",
          "type": "string"
        }
      ],
      "stateMutability": "view",
      "type": "function"
    },
    {
      "inputs": [
        {
          "internalType": "address",
          "name": "from",
          "type": "address"
        },
        {
          "internalType": "address",
          "name": "to",
          "type": "address"
        },
        {
          "internalType": "uint256",
          "name": "tokenId",
          "type": "uint256"
        }
      ],
      "name": "transferFrom",
      "outputs": [],
      "stateMutability": "nonpayable",
      "type": "function"
    },
    {
      "inputs": [
        {
          "internalType": "uint256",
          "name": "_listingPrice",
          "type": "uint256"
        }
      ],
      "name": "updateListingPrice",
      "outputs": [],
      "stateMutability": "payable",
      "type": "function"
    }
  ],
  "bytecode": "0x60806040526658d15e176280006009553480156200001c57600080fd5b506040518060400160405280600a81526020017f4e465420546f6b656e73000000000000000000000000000000000000000000008152506040518060400160405280600381526020017f4e4654000000000000000000000000000000000000000000000000000000000081525081600090816200009a919062000370565b508060019081620000ac919062000370565b50505033600a60006101000a81548173ffffffffffffffffffffffffffffffffffffffff021916908373ffffffffffffffffffffffffffffffffffffffff16021790555062000457565b600081519050919050565b7f4e487b7100000000000000000000000000000000000000000000000000000000600052604160045260246000fd5b7f4e487b7100000000000000000000000000000000000000000000000000000000600052602260045260246000fd5b600060028204905060018216806200017857607f821691505b6020821081036200018e576200018d62000130565b5b50919050565b60008190508160005260206000209050919050565b60006020601f8301049050919050565b600082821b905092915050565b600060088302620001f87fffffffffffffffffffffffffffffffffffffffffffffffffffffffffffffffff82620001b9565b620002048683620001b9565b95508019841693508086168417925050509392505050565b6000819050919050565b6000819050919050565b6000620002516200024b62000245846200021c565b62000226565b6200021c565b9050919050565b6000819050919050565b6200026d8362000230565b620002856200027c8262000258565b848454620001c6565b825550505050565b600090565b6200029c6200028d565b620002a981848462000262565b505050565b5b81811015620002d157620002c560008262000292565b600181019050620002af565b5050565b601f8211156200032057620002ea8162000194565b620002f584620001a9565b8101602085101562000305578190505b6200031d6200031485620001a9565b830182620002ae565b50505b505050565b600082821c905092915050565b6000620003456000198460080262000325565b1980831691505092915050565b600062000360838362000332565b9150826002028217905092915050565b6200037b82620000f6565b67ffffffffffffffff81111562000397576200039662000101565b5b620003a382546200015f565b620003b0828285620002d5565b600060209050601f831160018114620003e85760008415620003d3578287015190505b620003df858262000352565b8655506200044f565b601f198416620003f88662000194565b60005b828110156200042257848901518255600182019150602085019450602081019050620003fb565b868310156200044257848901516200043e601f89168262000332565b8355505b6001600288020188555050505b505050505050565b61436d80620004676000396000f3fe60806040526004361061012a5760003560e01c806370a08231116100ab578063ae677aa31161006f578063ae677aa31461041d578063b88d4fde14610439578063be9af53614610462578063c87b56dd1461047e578063e219fc75146104bb578063e985e9c5146104d75761012a565b806370a082311461031f57806372b3b6201461035c5780638a410b1a1461038c57806395d89b41146103c9578063a22cb465146103f45761012a565b806310afee1e116100f257806310afee1e1461022857806312e855851461026557806323b872dd1461029057806342842e0e146102b95780636352211e146102e25761012a565b806301ffc9a71461012f57806306fdde031461016c578063081812fc14610197578063095ea7b3146101d45780630f08efe0146101fd575b600080fd5b34801561013b57600080fd5b506101566004803603810190610151919061319a565b610514565b60405161016391906131e2565b60405180910390f35b34801561017857600080fd5b50610181610575565b60405161018e919061328d565b60405180910390f35b3480156101a357600080fd5b506101be60048036038101906101b991906132e5565b610607565b6040516101cb9190613353565b60405180910390f35b3480156101e057600080fd5b506101fb60048036038101906101f6919061339a565b610623565b005b34801561020957600080fd5b50610212610639565b60405161021f9190613530565b60405180910390f35b34801561023457600080fd5b5061024f600480360381019061024a9190613552565b610992565b60405161025c9190613530565b60405180910390f35b34801561027157600080fd5b5061027a610dfd565b604051610287919061358e565b60405180910390f35b34801561029c57600080fd5b506102b760048036038101906102b291906135a9565b610e07565b005b3480156102c557600080fd5b506102e060048036038101906102db91906135a9565b610f09565b005b3480156102ee57600080fd5b50610309600480360381019061030491906132e5565b610f29565b6040516103169190613353565b60405180910390f35b34801561032b57600080fd5b5061034660048036038101906103419190613552565b610f3b565b604051610353919061358e565b60405180910390f35b61037660048036038101906103719190613731565b610ff5565b604051610383919061358e565b60405180910390f35b34801561039857600080fd5b506103b360048036038101906103ae9190613552565b611037565b6040516103c09190613530565b60405180910390f35b3480156103d557600080fd5b506103de6114a2565b6040516103eb919061328d565b60405180910390f35b34801561040057600080fd5b5061041b600480360381019061041691906137b9565b611534565b005b610437600480360381019061043291906132e5565b61154a565b005b34801561044557600080fd5b50610460600480360381019061045b919061389a565b6115e4565b005b61047c600480360381019061047791906132e5565b611601565b005b34801561048a57600080fd5b506104a560048036038101906104a091906132e5565b611839565b6040516104b2919061328d565b60405180910390f35b6104d560048036038101906104d0919061391d565b61194c565b005b3480156104e357600080fd5b506104fe60048036038101906104f9919061395d565b611b41565b60405161050b91906131e2565b60405180910390f35b6000634906490660e01b7bffffffffffffffffffffffffffffffffffffffffffffffffffffffff1916827bffffffffffffffffffffffffffffffffffffffffffffffffffffffff1916148061056e575061056d82611bd5565b5b9050919050565b606060008054610584906139cc565b80601f01602080910402602001604051908101604052809291908181526020018280546105b0906139cc565b80156105fd5780601f106105d2576101008083540402835291602001916105fd565b820191906000526020600020905b8154815290600101906020018083116105e057829003601f168201915b5050505050905090565b600061061282611cb7565b5061061c82611d3f565b9050919050565b6106358282610630611d7c565b611d84565b5050565b606060006106476007611d96565b905060006106556008611d96565b61065f6007611d96565b6106699190613a2c565b905060006106ac6040518060400160405280600c81526020017f546f74616c206974656d733a000000000000000000000000000000000000000081525084611da4565b6106eb6040518060400160405280600d81526020017f556e736f6c64206974656d733a0000000000000000000000000000000000000081525083611da4565b60008267ffffffffffffffff81111561070757610706613606565b5b60405190808252806020026020018201604052801561074057816020015b61072d6130c7565b8152602001906001900390816107255790505b50905060005b84811015610987576107996040518060400160405280600e81526020017f436865636b696e67206974656d3a0000000000000000000000000000000000008152506001836107949190613a60565b611da4565b6108076040518060400160405280601181526020017f4974656d20736f6c64207374617475733a000000000000000000000000000000815250600b60006001856107e39190613a60565b815260200190815260200160002060040160009054906101000a900460ff16611e40565b600b60006001836108189190613a60565b815260200190815260200160002060040160009054906101000a900460ff1661097a57600060018261084a9190613a60565b90506000600b60008381526020019081526020016000209050806040518060a0016040529081600082015481526020016001820160009054906101000a900473ffffffffffffffffffffffffffffffffffffffff1673ffffffffffffffffffffffffffffffffffffffff1673ffffffffffffffffffffffffffffffffffffffff1681526020016002820160009054906101000a900473ffffffffffffffffffffffffffffffffffffffff1673ffffffffffffffffffffffffffffffffffffffff1673ffffffffffffffffffffffffffffffffffffffff168152602001600382015481526020016004820160009054906101000a900460ff16151515158152505084868151811061095d5761095c613a94565b5b60200260200101819052506001856109759190613a60565b945050505b8080600101915050610746565b508094505050505090565b606060006109a06007611d96565b90506000806109e46040518060400160405280600c81526020017f546f74616c206974656d733a000000000000000000000000000000000000000081525084611da4565b610a236040518060400160405280600e81526020017f4f776e657220616464726573733a00000000000000000000000000000000000081525086611edc565b60005b83811015610b8c57610a796040518060400160405280600e81526020017f436865636b696e67206974656d3a000000000000000000000000000000000000815250600183610a749190613a60565b611da4565b610afa6040518060400160405280600b81526020017f4974656d206f776e65723a000000000000000000000000000000000000000000815250600b6000600185610ac39190613a60565b815260200190815260200160002060020160009054906101000a900473ffffffffffffffffffffffffffffffffffffffff16611edc565b8573ffffffffffffffffffffffffffffffffffffffff16600b6000600184610b229190613a60565b815260200190815260200160002060020160009054906101000a900473ffffffffffffffffffffffffffffffffffffffff1673ffffffffffffffffffffffffffffffffffffffff1603610b7f57600183610b7c9190613a60565b92505b8080600101915050610a26565b50610bcc6040518060400160405280602081526020017f546f74616c204e465473206f776e65642062792074686520616464726573733a81525083611da4565b60008267ffffffffffffffff811115610be857610be7613606565b5b604051908082528060200260200182016040528015610c2157816020015b610c0e6130c7565b815260200190600190039081610c065790505b50905060005b84811015610df0578673ffffffffffffffffffffffffffffffffffffffff16600b6000600184610c579190613a60565b815260200190815260200160002060020160009054906101000a900473ffffffffffffffffffffffffffffffffffffffff1673ffffffffffffffffffffffffffffffffffffffff1603610de3576000600182610cb39190613a60565b90506000600b60008381526020019081526020016000209050806040518060a0016040529081600082015481526020016001820160009054906101000a900473ffffffffffffffffffffffffffffffffffffffff1673ffffffffffffffffffffffffffffffffffffffff1673ffffffffffffffffffffffffffffffffffffffff1681526020016002820160009054906101000a900473ffffffffffffffffffffffffffffffffffffffff1673ffffffffffffffffffffffffffffffffffffffff1673ffffffffffffffffffffffffffffffffffffffff168152602001600382015481526020016004820160009054906101000a900460ff161515151581525050848681518110610dc657610dc5613a94565b5b6020026020010181905250600185610dde9190613a60565b945050505b8080600101915050610c27565b5080945050505050919050565b6000600954905090565b600073ffffffffffffffffffffffffffffffffffffffff168273ffffffffffffffffffffffffffffffffffffffff1603610e795760006040517f64a0ae92000000000000000000000000000000000000000000000000000000008152600401610e709190613353565b60405180910390fd5b6000610e8d8383610e88611d7c565b611f78565b90508373ffffffffffffffffffffffffffffffffffffffff168173ffffffffffffffffffffffffffffffffffffffff1614610f03578382826040517f64283d7b000000000000000000000000000000000000000000000000000000008152600401610efa93929190613ac3565b60405180910390fd5b50505050565b610f24838383604051806020016040528060008152506115e4565b505050565b6000610f3482611cb7565b9050919050565b60008073ffffffffffffffffffffffffffffffffffffffff168273ffffffffffffffffffffffffffffffffffffffff1603610fae5760006040517f89c62b64000000000000000000000000000000000000000000000000000000008152600401610fa59190613353565b60405180910390fd5b600360008373ffffffffffffffffffffffffffffffffffffffff1673ffffffffffffffffffffffffffffffffffffffff168152602001908152602001600020549050919050565b60006110016007612192565b600061100d6007611d96565b905061101933826121a8565b61102381856122a1565b61102d81846122fd565b8091505092915050565b606060006110456007611d96565b90506000806110896040518060400160405280600c81526020017f546f74616c206974656d733a000000000000000000000000000000000000000081525084611da4565b6110c86040518060400160405280600f81526020017f53656c6c657220616464726573733a000000000000000000000000000000000081525086611edc565b60005b838110156112315761111e6040518060400160405280600e81526020017f436865636b696e67206974656d3a0000000000000000000000000000000000008152506001836111199190613a60565b611da4565b61119f6040518060400160405280600c81526020017f4974656d2073656c6c65723a0000000000000000000000000000000000000000815250600b60006001856111689190613a60565b815260200190815260200160002060010160009054906101000a900473ffffffffffffffffffffffffffffffffffffffff16611edc565b8573ffffffffffffffffffffffffffffffffffffffff16600b60006001846111c79190613a60565b815260200190815260200160002060010160009054906101000a900473ffffffffffffffffffffffffffffffffffffffff1673ffffffffffffffffffffffffffffffffffffffff1603611224576001836112219190613a60565b92505b80806001019150506110cb565b506112716040518060400160405280601781526020017f546f74616c206c69737465642062792073656c6c65723a00000000000000000081525083611da4565b60008267ffffffffffffffff81111561128d5761128c613606565b5b6040519080825280602002602001820160405280156112c657816020015b6112b36130c7565b8152602001906001900390816112ab5790505b50905060005b84811015611495578673ffffffffffffffffffffffffffffffffffffffff16600b60006001846112fc9190613a60565b815260200190815260200160002060010160009054906101000a900473ffffffffffffffffffffffffffffffffffffffff1673ffffffffffffffffffffffffffffffffffffffff16036114885760006001826113589190613a60565b90506000600b60008381526020019081526020016000209050806040518060a0016040529081600082015481526020016001820160009054906101000a900473ffffffffffffffffffffffffffffffffffffffff1673ffffffffffffffffffffffffffffffffffffffff1673ffffffffffffffffffffffffffffffffffffffff1681526020016002820160009054906101000a900473ffffffffffffffffffffffffffffffffffffffff1673ffffffffffffffffffffffffffffffffffffffff1673ffffffffffffffffffffffffffffffffffffffff168152602001600382015481526020016004820160009054906101000a900460ff16151515158152505084868151811061146b5761146a613a94565b5b60200260200101819052506001856114839190613a60565b945050505b80806001019150506112cc565b5080945050505050919050565b6060600180546114b1906139cc565b80601f01602080910402602001604051908101604052809291908181526020018280546114dd906139cc565b801561152a5780601f106114ff5761010080835404028352916020019161152a565b820191906000526020600020905b81548152906001019060200180831161150d57829003601f168201915b5050505050905090565b61154661153f611d7c565b8383612500565b5050565b3373ffffffffffffffffffffffffffffffffffffffff16600a60009054906101000a900473ffffffffffffffffffffffffffffffffffffffff1673ffffffffffffffffffffffffffffffffffffffff16146115da576040517f08c379a00000000000000000000000000000000000000000000000000000000081526004016115d190613b6c565b60405180910390fd5b8060098190555050565b6115ef848484610e07565b6115fb8484848461266f565b50505050565b6000600b600083815260200190815260200160002060030154905080341461165e576040517f08c379a000000000000000000000000000000000000000000000000000000000815260040161165590613bfe565b60405180910390fd5b33600b600084815260200190815260200160002060020160006101000a81548173ffffffffffffffffffffffffffffffffffffffff021916908373ffffffffffffffffffffffffffffffffffffffff1602179055506001600b600084815260200190815260200160002060040160006101000a81548160ff0219169083151502179055506000600b600084815260200190815260200160002060010160006101000a81548173ffffffffffffffffffffffffffffffffffffffff021916908373ffffffffffffffffffffffffffffffffffffffff1602179055506117426008612192565b61174d303384612826565b600a60009054906101000a900473ffffffffffffffffffffffffffffffffffffffff1673ffffffffffffffffffffffffffffffffffffffff166108fc6009549081150290604051600060405180830381858888f193505050501580156117b7573d6000803e3d6000fd5b50600b600083815260200190815260200160002060010160009054906101000a900473ffffffffffffffffffffffffffffffffffffffff1673ffffffffffffffffffffffffffffffffffffffff166108fc349081150290604051600060405180830381858888f19350505050158015611834573d6000803e3d6000fd5b505050565b606061184482611cb7565b506000600660008481526020019081526020016000208054611865906139cc565b80601f0160208091040260200160405190810160405280929190818152602001828054611891906139cc565b80156118de5780601f106118b3576101008083540402835291602001916118de565b820191906000526020600020905b8154815290600101906020018083116118c157829003601f168201915b5050505050905060006118ef612993565b90506000815103611904578192505050611947565b600082511115611939578082604051602001611921929190613c5a565b60405160208183030381529060405292505050611947565b611942846129aa565b925050505b919050565b3373ffffffffffffffffffffffffffffffffffffffff16600b600084815260200190815260200160002060020160009054906101000a900473ffffffffffffffffffffffffffffffffffffffff1673ffffffffffffffffffffffffffffffffffffffff16146119f0576040517f08c379a00000000000000000000000000000000000000000000000000000000081526004016119e790613cf0565b60405180910390fd5b6009543414611a34576040517f08c379a0000000000000000000000000000000000000000000000000000000008152600401611a2b90613d82565b60405180910390fd5b6000600b600084815260200190815260200160002060040160006101000a81548160ff02191690831515021790555080600b60008481526020019081526020016000206003018190555033600b600084815260200190815260200160002060010160006101000a81548173ffffffffffffffffffffffffffffffffffffffff021916908373ffffffffffffffffffffffffffffffffffffffff16021790555030600b600084815260200190815260200160002060020160006101000a81548173ffffffffffffffffffffffffffffffffffffffff021916908373ffffffffffffffffffffffffffffffffffffffff160217905550611b326008612a13565b611b3d333084612826565b5050565b6000600560008473ffffffffffffffffffffffffffffffffffffffff1673ffffffffffffffffffffffffffffffffffffffff16815260200190815260200160002060008373ffffffffffffffffffffffffffffffffffffffff1673ffffffffffffffffffffffffffffffffffffffff16815260200190815260200160002060009054906101000a900460ff16905092915050565b60007f80ac58cd000000000000000000000000000000000000000000000000000000007bffffffffffffffffffffffffffffffffffffffffffffffffffffffff1916827bffffffffffffffffffffffffffffffffffffffffffffffffffffffff19161480611ca057507f5b5e139f000000000000000000000000000000000000000000000000000000007bffffffffffffffffffffffffffffffffffffffffffffffffffffffff1916827bffffffffffffffffffffffffffffffffffffffffffffffffffffffff1916145b80611cb05750611caf82612a6f565b5b9050919050565b600080611cc383612ad9565b9050600073ffffffffffffffffffffffffffffffffffffffff168173ffffffffffffffffffffffffffffffffffffffff1603611d3657826040517f7e273289000000000000000000000000000000000000000000000000000000008152600401611d2d919061358e565b60405180910390fd5b80915050919050565b60006004600083815260200190815260200160002060009054906101000a900473ffffffffffffffffffffffffffffffffffffffff169050919050565b600033905090565b611d918383836001612b16565b505050565b600081600001549050919050565b611e3c8282604051602401611dba929190613da2565b6040516020818303038152906040527fb60e72cc000000000000000000000000000000000000000000000000000000007bffffffffffffffffffffffffffffffffffffffffffffffffffffffff19166020820180517bffffffffffffffffffffffffffffffffffffffffffffffffffffffff8381831617835250505050612cdb565b5050565b611ed88282604051602401611e56929190613dd2565b6040516020818303038152906040527fc3b55635000000000000000000000000000000000000000000000000000000007bffffffffffffffffffffffffffffffffffffffffffffffffffffffff19166020820180517bffffffffffffffffffffffffffffffffffffffffffffffffffffffff8381831617835250505050612cdb565b5050565b611f748282604051602401611ef2929190613e02565b6040516020818303038152906040527f319af333000000000000000000000000000000000000000000000000000000007bffffffffffffffffffffffffffffffffffffffffffffffffffffffff19166020820180517bffffffffffffffffffffffffffffffffffffffffffffffffffffffff8381831617835250505050612cdb565b5050565b600080611f8484612ad9565b9050600073ffffffffffffffffffffffffffffffffffffffff168373ffffffffffffffffffffffffffffffffffffffff1614611fc657611fc5818486612cf5565b5b600073ffffffffffffffffffffffffffffffffffffffff168173ffffffffffffffffffffffffffffffffffffffff161461205757612008600085600080612b16565b6001600360008373ffffffffffffffffffffffffffffffffffffffff1673ffffffffffffffffffffffffffffffffffffffff168152602001908152602001600020600082825403925050819055505b600073ffffffffffffffffffffffffffffffffffffffff168573ffffffffffffffffffffffffffffffffffffffff16146120da576001600360008773ffffffffffffffffffffffffffffffffffffffff1673ffffffffffffffffffffffffffffffffffffffff168152602001908152602001600020600082825401925050819055505b846002600086815260200190815260200160002060006101000a81548173ffffffffffffffffffffffffffffffffffffffff021916908373ffffffffffffffffffffffffffffffffffffffff160217905550838573ffffffffffffffffffffffffffffffffffffffff168273ffffffffffffffffffffffffffffffffffffffff167fddf252ad1be2c89b69c2b068fc378daa952ba7f163c4a11628f55a4df523b3ef60405160405180910390a4809150509392505050565b6001816000016000828254019250508190555050565b600073ffffffffffffffffffffffffffffffffffffffff168273ffffffffffffffffffffffffffffffffffffffff160361221a5760006040517f64a0ae920000000000000000000000000000000000000000000000000000000081526004016122119190613353565b60405180910390fd5b600061222883836000611f78565b9050600073ffffffffffffffffffffffffffffffffffffffff168173ffffffffffffffffffffffffffffffffffffffff161461229c5760006040517f73c6ac6e0000000000000000000000000000000000000000000000000000000081526004016122939190613353565b60405180910390fd5b505050565b806006600084815260200190815260200160002090816122c19190613fde565b507ff8e1a15aba9398e019f0b49df1a4fde98ee17ae345cb5f6b5e2c27f5033e8ce7826040516122f1919061358e565b60405180910390a15050565b60008111612340576040517f08c379a0000000000000000000000000000000000000000000000000000000008152600401612337906140fc565b60405180910390fd5b6009543414612384576040517f08c379a000000000000000000000000000000000000000000000000000000000815260040161237b90613d82565b60405180910390fd5b6040518060a001604052808381526020013373ffffffffffffffffffffffffffffffffffffffff1681526020013073ffffffffffffffffffffffffffffffffffffffff16815260200182815260200160001515815250600b60008481526020019081526020016000206000820151816000015560208201518160010160006101000a81548173ffffffffffffffffffffffffffffffffffffffff021916908373ffffffffffffffffffffffffffffffffffffffff16021790555060408201518160020160006101000a81548173ffffffffffffffffffffffffffffffffffffffff021916908373ffffffffffffffffffffffffffffffffffffffff1602179055506060820151816003015560808201518160040160006101000a81548160ff0219169083151502179055509050506124bd333084612826565b817fb640004f1d14576d0c209e240cad0410e0d8c0c33a09375861fbadae2588a98d33308460006040516124f4949392919061411c565b60405180910390a25050565b600073ffffffffffffffffffffffffffffffffffffffff168273ffffffffffffffffffffffffffffffffffffffff160361257157816040517f5b08ba180000000000000000000000000000000000000000000000000000000081526004016125689190613353565b60405180910390fd5b80600560008573ffffffffffffffffffffffffffffffffffffffff1673ffffffffffffffffffffffffffffffffffffffff16815260200190815260200160002060008473ffffffffffffffffffffffffffffffffffffffff1673ffffffffffffffffffffffffffffffffffffffff16815260200190815260200160002060006101000a81548160ff0219169083151502179055508173ffffffffffffffffffffffffffffffffffffffff168373ffffffffffffffffffffffffffffffffffffffff167f17307eab39ab6107e8899845ad3d59bd9653f200f220920489ca2b5937696c318360405161266291906131e2565b60405180910390a3505050565b60008373ffffffffffffffffffffffffffffffffffffffff163b1115612820578273ffffffffffffffffffffffffffffffffffffffff1663150b7a026126b3611d7c565b8685856040518563ffffffff1660e01b81526004016126d594939291906141b6565b6020604051808303816000875af192505050801561271157506040513d601f19601f8201168201806040525081019061270e9190614217565b60015b612795573d8060008114612741576040519150601f19603f3d011682016040523d82523d6000602084013e612746565b606091505b50600081510361278d57836040517f64a0ae920000000000000000000000000000000000000000000000000000000081526004016127849190613353565b60405180910390fd5b805181602001fd5b63150b7a0260e01b7bffffffffffffffffffffffffffffffffffffffffffffffffffffffff1916817bffffffffffffffffffffffffffffffffffffffffffffffffffffffff19161461281e57836040517f64a0ae920000000000000000000000000000000000000000000000000000000081526004016128159190613353565b60405180910390fd5b505b50505050565b600073ffffffffffffffffffffffffffffffffffffffff168273ffffffffffffffffffffffffffffffffffffffff16036128985760006040517f64a0ae9200000000000000000000000000000000000000000000000000000000815260040161288f9190613353565b60405180910390fd5b60006128a683836000611f78565b9050600073ffffffffffffffffffffffffffffffffffffffff168173ffffffffffffffffffffffffffffffffffffffff160361291957816040517f7e273289000000000000000000000000000000000000000000000000000000008152600401612910919061358e565b60405180910390fd5b8373ffffffffffffffffffffffffffffffffffffffff168173ffffffffffffffffffffffffffffffffffffffff161461298d578382826040517f64283d7b00000000000000000000000000000000000000000000000000000000815260040161298493929190613ac3565b60405180910390fd5b50505050565b606060405180602001604052806000815250905090565b60606129b582611cb7565b5060006129c0612993565b905060008151116129e05760405180602001604052806000815250612a0b565b806129ea84612db9565b6040516020016129fb929190613c5a565b6040516020818303038152906040525b915050919050565b60008160000154905060008111612a5f576040517f08c379a0000000000000000000000000000000000000000000000000000000008152600401612a5690614290565b60405180910390fd5b6001810382600001819055505050565b60007f01ffc9a7000000000000000000000000000000000000000000000000000000007bffffffffffffffffffffffffffffffffffffffffffffffffffffffff1916827bffffffffffffffffffffffffffffffffffffffffffffffffffffffff1916149050919050565b60006002600083815260200190815260200160002060009054906101000a900473ffffffffffffffffffffffffffffffffffffffff169050919050565b8080612b4f5750600073ffffffffffffffffffffffffffffffffffffffff168273ffffffffffffffffffffffffffffffffffffffff1614155b15612c83576000612b5f84611cb7565b9050600073ffffffffffffffffffffffffffffffffffffffff168373ffffffffffffffffffffffffffffffffffffffff1614158015612bca57508273ffffffffffffffffffffffffffffffffffffffff168173ffffffffffffffffffffffffffffffffffffffff1614155b8015612bdd5750612bdb8184611b41565b155b15612c1f57826040517fa9fbf51f000000000000000000000000000000000000000000000000000000008152600401612c169190613353565b60405180910390fd5b8115612c8157838573ffffffffffffffffffffffffffffffffffffffff168273ffffffffffffffffffffffffffffffffffffffff167f8c5be1e5ebec7d5bd14f71427d1e84f3dd0314c0f7b2291e5b200ac8c7c3b92560405160405180910390a45b505b836004600085815260200190815260200160002060006101000a81548173ffffffffffffffffffffffffffffffffffffffff021916908373ffffffffffffffffffffffffffffffffffffffff16021790555050505050565b612cf281612cea612e87612ea8565b63ffffffff16565b50565b612d00838383612eb3565b612db457600073ffffffffffffffffffffffffffffffffffffffff168373ffffffffffffffffffffffffffffffffffffffff1603612d7557806040517f7e273289000000000000000000000000000000000000000000000000000000008152600401612d6c919061358e565b60405180910390fd5b81816040517f177e802f000000000000000000000000000000000000000000000000000000008152600401612dab9291906142b0565b60405180910390fd5b505050565b606060006001612dc884612f74565b01905060008167ffffffffffffffff811115612de757612de6613606565b5b6040519080825280601f01601f191660200182016040528015612e195781602001600182028036833780820191505090505b509050600082602001820190505b600115612e7c578080600190039150507f3031323334353637383961626364656600000000000000000000000000000000600a86061a8153600a8581612e7057612e6f6142d9565b5b04945060008503612e27575b819350505050919050565b60006a636f6e736f6c652e6c6f679050600080835160208501845afa505050565b613124819050919050565b60008073ffffffffffffffffffffffffffffffffffffffff168373ffffffffffffffffffffffffffffffffffffffff1614158015612f6b57508273ffffffffffffffffffffffffffffffffffffffff168473ffffffffffffffffffffffffffffffffffffffff161480612f2c5750612f2b8484611b41565b5b80612f6a57508273ffffffffffffffffffffffffffffffffffffffff16612f5283611d3f565b73ffffffffffffffffffffffffffffffffffffffff16145b5b90509392505050565b600080600090507a184f03e93ff9f4daa797ed6e38ed64bf6a1f0100000000000000008310612fd2577a184f03e93ff9f4daa797ed6e38ed64bf6a1f0100000000000000008381612fc857612fc76142d9565b5b0492506040810190505b6d04ee2d6d415b85acef8100000000831061300f576d04ee2d6d415b85acef81000000008381613005576130046142d9565b5b0492506020810190505b662386f26fc10000831061303e57662386f26fc100008381613034576130336142d9565b5b0492506010810190505b6305f5e1008310613067576305f5e100838161305d5761305c6142d9565b5b0492506008810190505b612710831061308c576127108381613082576130816142d9565b5b0492506004810190505b606483106130af57606483816130a5576130a46142d9565b5b0492506002810190505b600a83106130be576001810190505b80915050919050565b6040518060a0016040528060008152602001600073ffffffffffffffffffffffffffffffffffffffff168152602001600073ffffffffffffffffffffffffffffffffffffffff168152602001600081526020016000151581525090565b61312c614308565b565b6000604051905090565b600080fd5b600080fd5b60007fffffffff0000000000000000000000000000000000000000000000000000000082169050919050565b61317781613142565b811461318257600080fd5b50565b6000813590506131948161316e565b92915050565b6000602082840312156131b0576131af613138565b5b60006131be84828501613185565b91505092915050565b60008115159050919050565b6131dc816131c7565b82525050565b60006020820190506131f760008301846131d3565b92915050565b600081519050919050565b600082825260208201905092915050565b60005b8381101561323757808201518184015260208101905061321c565b60008484015250505050565b6000601f19601f8301169050919050565b600061325f826131fd565b6132698185613208565b9350613279818560208601613219565b61328281613243565b840191505092915050565b600060208201905081810360008301526132a78184613254565b905092915050565b6000819050919050565b6132c2816132af565b81146132cd57600080fd5b50565b6000813590506132df816132b9565b92915050565b6000602082840312156132fb576132fa613138565b5b6000613309848285016132d0565b91505092915050565b600073ffffffffffffffffffffffffffffffffffffffff82169050919050565b600061333d82613312565b9050919050565b61334d81613332565b82525050565b60006020820190506133686000830184613344565b92915050565b61337781613332565b811461338257600080fd5b50565b6000813590506133948161336e565b92915050565b600080604083850312156133b1576133b0613138565b5b60006133bf85828601613385565b92505060206133d0858286016132d0565b9150509250929050565b600081519050919050565b600082825260208201905092915050565b6000819050602082019050919050565b61340f816132af565b82525050565b600061342082613312565b9050919050565b61343081613415565b82525050565b61343f816131c7565b82525050565b60a08201600082015161345b6000850182613406565b50602082015161346e6020850182613427565b5060408201516134816040850182613427565b5060608201516134946060850182613406565b5060808201516134a76080850182613436565b50505050565b60006134b98383613445565b60a08301905092915050565b6000602082019050919050565b60006134dd826133da565b6134e781856133e5565b93506134f2836133f6565b8060005b8381101561352357815161350a88826134ad565b9750613515836134c5565b9250506001810190506134f6565b5085935050505092915050565b6000602082019050818103600083015261354a81846134d2565b905092915050565b60006020828403121561356857613567613138565b5b600061357684828501613385565b91505092915050565b613588816132af565b82525050565b60006020820190506135a3600083018461357f565b92915050565b6000806000606084860312156135c2576135c1613138565b5b60006135d086828701613385565b93505060206135e186828701613385565b92505060406135f2868287016132d0565b9150509250925092565b600080fd5b600080fd5b7f4e487b7100000000000000000000000000000000000000000000000000000000600052604160045260246000fd5b61363e82613243565b810181811067ffffffffffffffff8211171561365d5761365c613606565b5b80604052505050565b600061367061312e565b905061367c8282613635565b919050565b600067ffffffffffffffff82111561369c5761369b613606565b5b6136a582613243565b9050602081019050919050565b82818337600083830152505050565b60006136d46136cf84613681565b613666565b9050828152602081018484840111156136f0576136ef613601565b5b6136fb8482856136b2565b509392505050565b600082601f830112613718576137176135fc565b5b81356137288482602086016136c1565b91505092915050565b6000806040838503121561374857613747613138565b5b600083013567ffffffffffffffff8111156137665761376561313d565b5b61377285828601613703565b9250506020613783858286016132d0565b9150509250929050565b613796816131c7565b81146137a157600080fd5b50565b6000813590506137b38161378d565b92915050565b600080604083850312156137d0576137cf613138565b5b60006137de85828601613385565b92505060206137ef858286016137a4565b9150509250929050565b600067ffffffffffffffff82111561381457613813613606565b5b61381d82613243565b9050602081019050919050565b600061383d613838846137f9565b613666565b90508281526020810184848401111561385957613858613601565b5b6138648482856136b2565b509392505050565b600082601f830112613881576138806135fc565b5b813561389184826020860161382a565b91505092915050565b600080600080608085870312156138b4576138b3613138565b5b60006138c287828801613385565b94505060206138d387828801613385565b93505060406138e4878288016132d0565b925050606085013567ffffffffffffffff8111156139055761390461313d565b5b6139118782880161386c565b91505092959194509250565b6000806040838503121561393457613933613138565b5b6000613942858286016132d0565b9250506020613953858286016132d0565b9150509250929050565b6000806040838503121561397457613973613138565b5b600061398285828601613385565b925050602061399385828601613385565b9150509250929050565b7f4e487b7100000000000000000000000000000000000000000000000000000000600052602260045260246000fd5b600060028204905060018216806139e457607f821691505b6020821081036139f7576139f661399d565b5b50919050565b7f4e487b7100000000000000000000000000000000000000000000000000000000600052601160045260246000fd5b6000613a37826132af565b9150613a42836132af565b9250828203905081811115613a5a57613a596139fd565b5b92915050565b6000613a6b826132af565b9150613a76836132af565b9250828201905080821115613a8e57613a8d6139fd565b5b92915050565b7f4e487b7100000000000000000000000000000000000000000000000000000000600052603260045260246000fd5b6000606082019050613ad86000830186613344565b613ae5602083018561357f565b613af26040830184613344565b949350505050565b7f4f6e6c79206d61726b6574706c616365206f776e65722063616e20757064617460008201527f65206c697374696e672070726963652e00000000000000000000000000000000602082015250565b6000613b56603083613208565b9150613b6182613afa565b604082019050919050565b60006020820190508181036000830152613b8581613b49565b9050919050565b7f506c65617365207375626d6974207468652061736b696e67207072696365206960008201527f6e206f7264657220746f20636f6d706c65746520746865207075726368617365602082015250565b6000613be8604083613208565b9150613bf382613b8c565b604082019050919050565b60006020820190508181036000830152613c1781613bdb565b9050919050565b600081905092915050565b6000613c34826131fd565b613c3e8185613c1e565b9350613c4e818560208601613219565b80840191505092915050565b6000613c668285613c29565b9150613c728284613c29565b91508190509392505050565b7f4f6e6c79206974656d206f776e65722063616e20706572666f726d207468697360008201527f206f7065726174696f6e00000000000000000000000000000000000000000000602082015250565b6000613cda602a83613208565b9150613ce582613c7e565b604082019050919050565b60006020820190508181036000830152613d0981613ccd565b9050919050565b7f5072696365206d75737420626520657175616c20746f206c697374696e67207060008201527f7269636500000000000000000000000000000000000000000000000000000000602082015250565b6000613d6c602483613208565b9150613d7782613d10565b604082019050919050565b60006020820190508181036000830152613d9b81613d5f565b9050919050565b60006040820190508181036000830152613dbc8185613254565b9050613dcb602083018461357f565b9392505050565b60006040820190508181036000830152613dec8185613254565b9050613dfb60208301846131d3565b9392505050565b60006040820190508181036000830152613e1c8185613254565b9050613e2b6020830184613344565b9392505050565b60008190508160005260206000209050919050565b60006020601f8301049050919050565b600082821b905092915050565b600060088302613e947fffffffffffffffffffffffffffffffffffffffffffffffffffffffffffffffff82613e57565b613e9e8683613e57565b95508019841693508086168417925050509392505050565b6000819050919050565b6000613edb613ed6613ed1846132af565b613eb6565b6132af565b9050919050565b6000819050919050565b613ef583613ec0565b613f09613f0182613ee2565b848454613e64565b825550505050565b600090565b613f1e613f11565b613f29818484613eec565b505050565b5b81811015613f4d57613f42600082613f16565b600181019050613f2f565b5050565b601f821115613f9257613f6381613e32565b613f6c84613e47565b81016020851015613f7b578190505b613f8f613f8785613e47565b830182613f2e565b50505b505050565b600082821c905092915050565b6000613fb560001984600802613f97565b1980831691505092915050565b6000613fce8383613fa4565b9150826002028217905092915050565b613fe7826131fd565b67ffffffffffffffff81111561400057613fff613606565b5b61400a82546139cc565b614015828285613f51565b600060209050601f8311600181146140485760008415614036578287015190505b6140408582613fc2565b8655506140a8565b601f19841661405686613e32565b60005b8281101561407e57848901518255600182019150602085019450602081019050614059565b8683101561409b5784890151614097601f891682613fa4565b8355505b6001600288020188555050505b505050505050565b7f5072696365206d757374206265206174206c6561737420312077656900000000600082015250565b60006140e6601c83613208565b91506140f1826140b0565b602082019050919050565b60006020820190508181036000830152614115816140d9565b9050919050565b60006080820190506141316000830187613344565b61413e6020830186613344565b61414b604083018561357f565b61415860608301846131d3565b95945050505050565b600081519050919050565b600082825260208201905092915050565b600061418882614161565b614192818561416c565b93506141a2818560208601613219565b6141ab81613243565b840191505092915050565b60006080820190506141cb6000830187613344565b6141d86020830186613344565b6141e5604083018561357f565b81810360608301526141f7818461417d565b905095945050505050565b6000815190506142118161316e565b92915050565b60006020828403121561422d5761422c613138565b5b600061423b84828501614202565b91505092915050565b7f436f756e7465723a2064656372656d656e74206f766572666c6f770000000000600082015250565b600061427a601b83613208565b915061428582614244565b602082019050919050565b600060208201905081810360008301526142a98161426d565b9050919050565b60006040820190506142c56000830185613344565b6142d2602083018461357f565b9392505050565b7f4e487b7100000000000000000000000000000000000000000000000000000000600052601260045260246000fd5b7f4e487b7100000000000000000000000000000000000000000000000000000000600052605160045260246000fdfea26469706673582212202bc9c7c506fe8d6885bc5dba6dfda24f9d2a00b949c4238a84f0ad104912ea1064736f6c63430008180033",
  "linkReferences": {},
  "deployedLinkReferences": {}
}